{
  "_format": "hh-sol-artifact-1",
  "contractName": "GLUEscrow",
  "sourceName": "contracts/GLUEscrow.sol",
  "abi": [
    {
      "inputs": [
        {
          "internalType": "contract IERC20",
          "name": "_token",
          "type": "address"
        }
      ],
      "stateMutability": "nonpayable",
      "type": "constructor"
    },
    {
      "inputs": [
        {
          "internalType": "address",
          "name": "beneficiary",
          "type": "address"
        },
        {
          "internalType": "uint256",
          "name": "amount",
          "type": "uint256"
        }
      ],
      "name": "createEscrow",
      "outputs": [
        {
          "internalType": "uint256",
          "name": "",
          "type": "uint256"
        }
      ],
      "stateMutability": "nonpayable",
      "type": "function"
    },
    {
      "inputs": [
        {
          "internalType": "uint256",
          "name": "",
          "type": "uint256"
        }
      ],
      "name": "deposits",
      "outputs": [
        {
          "internalType": "address",
          "name": "depositor",
          "type": "address"
        },
        {
          "internalType": "address",
          "name": "beneficiary",
          "type": "address"
        },
        {
          "internalType": "uint256",
          "name": "amount",
          "type": "uint256"
        },
        {
          "internalType": "bool",
          "name": "released",
          "type": "bool"
        }
      ],
      "stateMutability": "view",
      "type": "function"
    },
    {
      "inputs": [],
      "name": "nextId",
      "outputs": [
        {
          "internalType": "uint256",
          "name": "",
          "type": "uint256"
        }
      ],
      "stateMutability": "view",
      "type": "function"
    },
    {
      "inputs": [],
      "name": "owner",
      "outputs": [
        {
          "internalType": "address",
          "name": "",
          "type": "address"
        }
      ],
      "stateMutability": "view",
      "type": "function"
    },
    {
      "inputs": [
        {
          "internalType": "uint256",
          "name": "id",
          "type": "uint256"
        }
      ],
      "name": "release",
      "outputs": [],
      "stateMutability": "nonpayable",
      "type": "function"
    },
    {
      "inputs": [],
      "name": "token",
      "outputs": [
        {
          "internalType": "contract IERC20",
          "name": "",
          "type": "address"
        }
      ],
      "stateMutability": "view",
      "type": "function"
    }
  ],
  "bytecode": "0x60c060405234801561001057600080fd5b50604051610d0b380380610d0b83398181016040528101906100329190610115565b8073ffffffffffffffffffffffffffffffffffffffff1660808173ffffffffffffffffffffffffffffffffffffffff16815250503373ffffffffffffffffffffffffffffffffffffffff1660a08173ffffffffffffffffffffffffffffffffffffffff168152505050610142565b600080fd5b600073ffffffffffffffffffffffffffffffffffffffff82169050919050565b60006100d0826100a5565b9050919050565b60006100e2826100c5565b9050919050565b6100f2816100d7565b81146100fd57600080fd5b50565b60008151905061010f816100e9565b92915050565b60006020828403121561012b5761012a6100a0565b5b600061013984828501610100565b91505092915050565b60805160a051610b8f61017c6000396000818161020301526105dd0152600081816102af015281816103ba015261067e0152610b8f6000f3fe608060405234801561001057600080fd5b50600436106100625760003560e01c806337bdc99b146100675780634614874e1461008357806361b8ce8c146100b35780638da5cb5b146100d1578063b02c43d0146100ef578063fc0c546a14610122575b600080fd5b610081600480360381019061007c91906106db565b610140565b005b61009d60048036038101906100989190610766565b6103b6565b6040516100aa91906107b5565b60405180910390f35b6100bb6105d5565b6040516100c891906107b5565b60405180910390f35b6100d96105db565b6040516100e691906107df565b60405180910390f35b610109600480360381019061010491906106db565b6105ff565b6040516101199493929190610815565b60405180910390f35b61012a61067c565b60405161013791906108b9565b60405180910390f35b600080600083815260200190815260200160002090508060030160009054906101000a900460ff16156101a8576040517f08c379a000000000000000000000000000000000000000000000000000000000815260040161019f90610931565b60405180910390fd5b8060000160009054906101000a900473ffffffffffffffffffffffffffffffffffffffff1673ffffffffffffffffffffffffffffffffffffffff163373ffffffffffffffffffffffffffffffffffffffff16148061025157507f000000000000000000000000000000000000000000000000000000000000000073ffffffffffffffffffffffffffffffffffffffff163373ffffffffffffffffffffffffffffffffffffffff16145b610290576040517f08c379a00000000000000000000000000000000000000000000000000000000081526004016102879061099d565b60405180910390fd5b60018160030160006101000a81548160ff0219169083151502179055507f000000000000000000000000000000000000000000000000000000000000000073ffffffffffffffffffffffffffffffffffffffff1663a9059cbb8260010160009054906101000a900473ffffffffffffffffffffffffffffffffffffffff1683600201546040518363ffffffff1660e01b81526004016103309291906109bd565b6020604051808303816000875af115801561034f573d6000803e3d6000fd5b505050506040513d601f19601f820116820180604052508101906103739190610a12565b6103b2576040517f08c379a00000000000000000000000000000000000000000000000000000000081526004016103a990610a8b565b60405180910390fd5b5050565b60007f000000000000000000000000000000000000000000000000000000000000000073ffffffffffffffffffffffffffffffffffffffff166323b872dd3330856040518463ffffffff1660e01b815260040161041593929190610aab565b6020604051808303816000875af1158015610434573d6000803e3d6000fd5b505050506040513d601f19601f820116820180604052508101906104589190610a12565b610497576040517f08c379a000000000000000000000000000000000000000000000000000000000815260040161048e90610a8b565b60405180910390fd5b60405180608001604052803373ffffffffffffffffffffffffffffffffffffffff1681526020018473ffffffffffffffffffffffffffffffffffffffff16815260200183815260200160001515815250600080600154815260200190815260200160002060008201518160000160006101000a81548173ffffffffffffffffffffffffffffffffffffffff021916908373ffffffffffffffffffffffffffffffffffffffff16021790555060208201518160010160006101000a81548173ffffffffffffffffffffffffffffffffffffffff021916908373ffffffffffffffffffffffffffffffffffffffff1602179055506040820151816002015560608201518160030160006101000a81548160ff021916908315150217905550905050600160008154809291906105c990610b11565b91905055905092915050565b60015481565b7f000000000000000000000000000000000000000000000000000000000000000081565b60006020528060005260406000206000915090508060000160009054906101000a900473ffffffffffffffffffffffffffffffffffffffff16908060010160009054906101000a900473ffffffffffffffffffffffffffffffffffffffff16908060020154908060030160009054906101000a900460ff16905084565b7f000000000000000000000000000000000000000000000000000000000000000081565b600080fd5b6000819050919050565b6106b8816106a5565b81146106c357600080fd5b50565b6000813590506106d5816106af565b92915050565b6000602082840312156106f1576106f06106a0565b5b60006106ff848285016106c6565b91505092915050565b600073ffffffffffffffffffffffffffffffffffffffff82169050919050565b600061073382610708565b9050919050565b61074381610728565b811461074e57600080fd5b50565b6000813590506107608161073a565b92915050565b6000806040838503121561077d5761077c6106a0565b5b600061078b85828601610751565b925050602061079c858286016106c6565b9150509250929050565b6107af816106a5565b82525050565b60006020820190506107ca60008301846107a6565b92915050565b6107d981610728565b82525050565b60006020820190506107f460008301846107d0565b92915050565b60008115159050919050565b61080f816107fa565b82525050565b600060808201905061082a60008301876107d0565b61083760208301866107d0565b61084460408301856107a6565b6108516060830184610806565b95945050505050565b6000819050919050565b600061087f61087a61087584610708565b61085a565b610708565b9050919050565b600061089182610864565b9050919050565b60006108a382610886565b9050919050565b6108b381610898565b82525050565b60006020820190506108ce60008301846108aa565b92915050565b600082825260208201905092915050565b7f616c72656164792072656c656173656400000000000000000000000000000000600082015250565b600061091b6010836108d4565b9150610926826108e5565b602082019050919050565b6000602082019050818103600083015261094a8161090e565b9050919050565b7f6e6f7420617574686f72697a6564000000000000000000000000000000000000600082015250565b6000610987600e836108d4565b915061099282610951565b602082019050919050565b600060208201905081810360008301526109b68161097a565b9050919050565b60006040820190506109d260008301856107d0565b6109df60208301846107a6565b9392505050565b6109ef816107fa565b81146109fa57600080fd5b50565b600081519050610a0c816109e6565b92915050565b600060208284031215610a2857610a276106a0565b5b6000610a36848285016109fd565b91505092915050565b7f7472616e73666572206661696c65640000000000000000000000000000000000600082015250565b6000610a75600f836108d4565b9150610a8082610a3f565b602082019050919050565b60006020820190508181036000830152610aa481610a68565b9050919050565b6000606082019050610ac060008301866107d0565b610acd60208301856107d0565b610ada60408301846107a6565b949350505050565b7f4e487b7100000000000000000000000000000000000000000000000000000000600052601160045260246000fd5b6000610b1c826106a5565b91507fffffffffffffffffffffffffffffffffffffffffffffffffffffffffffffffff8203610b4e57610b4d610ae2565b5b60018201905091905056fea26469706673582212200cf1025d4fc35dd4b8fca156475f3c18b3b9bac096eb5ede09e3c27b4ecb60e964736f6c63430008140033",
  "linkReferences": {},
  "deployedLinkReferences": {}
}