{
  "_format": "hh-sol-artifact-1",
  "contractName": "Escrow",
  "sourceName": "contracts/Escrow.sol",
  "abi": [
    {
      "inputs": [
        {
          "internalType": "address",
          "name": "_buyer",
          "type": "address"
        },
        {
          "internalType": "address",
          "name": "_seller",
          "type": "address"
        }
      ],
      "stateMutability": "payable",
      "type": "constructor"
    },
    {
      "inputs": [],
      "name": "amount",
      "outputs": [
        {
          "internalType": "uint256",
          "name": "",
          "type": "uint256"
        }
      ],
      "stateMutability": "view",
      "type": "function"
    },
    {
      "inputs": [],
      "name": "buyer",
      "outputs": [
        {
          "internalType": "address",
          "name": "",
          "type": "address"
        }
      ],
      "stateMutability": "view",
      "type": "function"
    },
    {
      "inputs": [],
      "name": "getBalance",
      "outputs": [
        {
          "internalType": "uint256",
          "name": "",
          "type": "uint256"
        }
      ],
      "stateMutability": "view",
      "type": "function"
    },
    {
      "inputs": [],
      "name": "isRefunded",
      "outputs": [
        {
          "internalType": "bool",
          "name": "",
          "type": "bool"
        }
      ],
      "stateMutability": "view",
      "type": "function"
    },
    {
      "inputs": [],
      "name": "isReleased",
      "outputs": [
        {
          "internalType": "bool",
          "name": "",
          "type": "bool"
        }
      ],
      "stateMutability": "view",
      "type": "function"
    },
    {
      "inputs": [],
      "name": "refundToBuyer",
      "outputs": [],
      "stateMutability": "nonpayable",
      "type": "function"
    },
    {
      "inputs": [],
      "name": "releaseToSeller",
      "outputs": [],
      "stateMutability": "nonpayable",
      "type": "function"
    },
    {
      "inputs": [],
      "name": "seller",
      "outputs": [
        {
          "internalType": "address",
          "name": "",
          "type": "address"
        }
      ],
      "stateMutability": "view",
      "type": "function"
    }
  ],
  "bytecode": "0x608060405260405161049f38038061049f833981016040819052610022916100d2565b600034116100765760405162461bcd60e51b815260206004820152601960248201527f4d7573742073656e64204d4154494320746f20657363726f7700000000000000604482015260640160405180910390fd5b600080546001600160a01b039384166001600160a01b03199182161790915560018054929093169116179055346002556003805461ffff19169055610105565b80516001600160a01b03811681146100cd57600080fd5b919050565b600080604083850312156100e557600080fd5b6100ee836100b6565b91506100fc602084016100b6565b90509250929050565b61038b806101146000396000f3fe608060405234801561001057600080fd5b50600436106100885760003560e01c8063779cd0831161005b578063779cd083146100ea578063892a0e421461010c578063aa8c217c14610114578063fa2a89971461011d57600080fd5b806308551a531461008d57806312065fe0146100bd5780634bd7d081146100cd5780637150d8ae146100d7575b600080fd5b6001546100a0906001600160a01b031681565b6040516001600160a01b0390911681526020015b60405180910390f35b475b6040519081526020016100b4565b6100d561012a565b005b6000546100a0906001600160a01b031681565b6003546100fc90610100900460ff1681565b60405190151581526020016100b4565b6100d5610244565b6100bf60025481565b6003546100fc9060ff1681565b6001546001600160a01b031633146101955760405162461bcd60e51b815260206004820152602360248201527f4f6e6c792073656c6c65722063616e20706572666f726d20746869732061637460448201526234b7b760e91b60648201526084015b60405180910390fd5b60035460ff161580156101b05750600354610100900460ff16155b6101f75760405162461bcd60e51b8152602060048201526018602482015277115cd8dc9bddc8185b1c9958591e4818dbdb5c1b195d195960421b604482015260640161018c565b6003805461ff001916610100179055600080546002546040516001600160a01b039092169281156108fc029290818181858888f19350505050158015610241573d6000803e3d6000fd5b50565b6000546001600160a01b031633146102a95760405162461bcd60e51b815260206004820152602260248201527f4f6e6c792062757965722063616e20706572666f726d2074686973206163746960448201526137b760f11b606482015260840161018c565b60035460ff161580156102c45750600354610100900460ff16155b61030b5760405162461bcd60e51b8152602060048201526018602482015277115cd8dc9bddc8185b1c9958591e4818dbdb5c1b195d195960421b604482015260640161018c565b6003805460ff19166001908117909155546002546040516001600160a01b039092169181156108fc0291906000818181858888f19350505050158015610241573d6000803e3d6000fdfea2646970667358221220f97727eba0132f58d389337ffd2db24a1fa31474d51dc427059c249897ebd0e064736f6c63430008140033",
  "linkReferences": {},
  "deployedLinkReferences": {}
}